{
  "contractName": "Test",
  "abi": [
    {
      "inputs": [
        {
          "internalType": "uint256",
          "name": "_orderID",
          "type": "uint256"
        },
        {
          "internalType": "address",
          "name": "_seller",
          "type": "address"
        }
      ],
      "name": "addUnit",
      "outputs": [],
      "stateMutability": "payable",
      "type": "function",
      "payable": true
    },
    {
      "inputs": [
        {
          "internalType": "uint256",
          "name": "_id",
          "type": "uint256"
        }
      ],
      "name": "refund",
      "outputs": [],
      "stateMutability": "nonpayable",
      "type": "function"
    },
    {
      "inputs": [
        {
          "internalType": "uint256",
          "name": "_id",
          "type": "uint256"
        }
      ],
      "name": "deliveryConfirm",
      "outputs": [],
      "stateMutability": "nonpayable",
      "type": "function"
    }
  ],
  "bytecode": "0x608060405234801561001057600080fd5b50610aa8806100206000396000f3fe6080604052600436106100345760003560e01c8063278ecde11461003957806383b02bbe14610062578063ff0188bf1461008b575b600080fd5b34801561004557600080fd5b50610060600480360381019061005b9190610617565b6100a7565b005b34801561006e57600080fd5b5061008960048036038101906100849190610617565b610275565b005b6100a560048036038101906100a091906106a2565b610443565b005b60008082815260200190815260200160002060020160009054906101000a900473ffffffffffffffffffffffffffffffffffffffff1673ffffffffffffffffffffffffffffffffffffffff163373ffffffffffffffffffffffffffffffffffffffff161461014a576040517f08c379a000000000000000000000000000000000000000000000000000000000815260040161014190610765565b60405180910390fd5b600a6000808381526020019081526020016000206004015461016c91906107b4565b42116101ad576040517f08c379a00000000000000000000000000000000000000000000000000000000081526004016101a490610856565b60405180910390fd5b6001151560008083815260200190815260200160002060050160009054906101000a900460ff16151514610216576040517f08c379a000000000000000000000000000000000000000000000000000000000815260040161020d906108c2565b60405180910390fd5b3373ffffffffffffffffffffffffffffffffffffffff166108fc600080848152602001908152602001600020600301549081150290604051600060405180830381858888f19350505050158015610271573d6000803e3d6000fd5b5050565b60008082815260200190815260200160002060020160009054906101000a900473ffffffffffffffffffffffffffffffffffffffff1673ffffffffffffffffffffffffffffffffffffffff163373ffffffffffffffffffffffffffffffffffffffff1614610318576040517f08c379a000000000000000000000000000000000000000000000000000000000815260040161030f90610954565b60405180910390fd5b6000151560008083815260200190815260200160002060050160009054906101000a900460ff16151514610381576040517f08c379a0000000000000000000000000000000000000000000000000000000008152600401610378906109e6565b60405180910390fd5b600160008083815260200190815260200160002060050160006101000a81548160ff02191690831515021790555060008082815260200190815260200160002060010160009054906101000a900473ffffffffffffffffffffffffffffffffffffffff1673ffffffffffffffffffffffffffffffffffffffff166108fc600080848152602001908152602001600020600301549081150290604051600060405180830381858888f1935050505015801561043f573d6000803e3d6000fd5b5050565b6000806000848152602001908152602001600020600001541461049b576040517f08c379a000000000000000000000000000000000000000000000000000000000815260040161049290610a52565b60405180910390fd5b6040518060c001604052808381526020018273ffffffffffffffffffffffffffffffffffffffff1681526020013373ffffffffffffffffffffffffffffffffffffffff168152602001348152602001428152602001600015158152506000808481526020019081526020016000206000820151816000015560208201518160010160006101000a81548173ffffffffffffffffffffffffffffffffffffffff021916908373ffffffffffffffffffffffffffffffffffffffff16021790555060408201518160020160006101000a81548173ffffffffffffffffffffffffffffffffffffffff021916908373ffffffffffffffffffffffffffffffffffffffff160217905550606082015181600301556080820151816004015560a08201518160050160006101000a81548160ff0219169083151502179055509050505050565b600080fd5b6000819050919050565b6105f4816105e1565b81146105ff57600080fd5b50565b600081359050610611816105eb565b92915050565b60006020828403121561062d5761062c6105dc565b5b600061063b84828501610602565b91505092915050565b600073ffffffffffffffffffffffffffffffffffffffff82169050919050565b600061066f82610644565b9050919050565b61067f81610664565b811461068a57600080fd5b50565b60008135905061069c81610676565b92915050565b600080604083850312156106b9576106b86105dc565b5b60006106c785828601610602565b92505060206106d88582860161068d565b9150509250929050565b600082825260208201905092915050565b7f546869732070726f6475636374206973206e6f742062726f756768742062792060008201527f796f750000000000000000000000000000000000000000000000000000000000602082015250565b600061074f6023836106e2565b915061075a826106f3565b604082019050919050565b6000602082019050818103600083015261077e81610742565b9050919050565b7f4e487b7100000000000000000000000000000000000000000000000000000000600052601160045260246000fd5b60006107bf826105e1565b91506107ca836105e1565b9250827fffffffffffffffffffffffffffffffffffffffffffffffffffffffffffffffff038211156107ff576107fe610785565b5b828201905092915050565b7f596f75206861766520746f2077616974206265666f726520726566756e640000600082015250565b6000610840601e836106e2565b915061084b8261080a565b602082019050919050565b6000602082019050818103600083015261086f81610833565b9050919050565b7f596f752068617665205265636965766564207468652050726f64756374000000600082015250565b60006108ac601d836106e2565b91506108b782610876565b602082019050919050565b600060208201905081810360008301526108db8161089f565b9050919050565b7f4f6e6c792042757965722063616e20636f6e6669726d207468652064656c697660008201527f6572790000000000000000000000000000000000000000000000000000000000602082015250565b600061093e6023836106e2565b9150610949826108e2565b604082019050919050565b6000602082019050818103600083015261096d81610931565b9050919050565b7f596f75206861766520616c72656164792052656369657665642074686520507260008201527f6f64756374000000000000000000000000000000000000000000000000000000602082015250565b60006109d06025836106e2565b91506109db82610974565b604082019050919050565b600060208201905081810360008301526109ff816109c3565b9050919050565b7f54686973206f7264657220697320616c726564617920706c6163656400000000600082015250565b6000610a3c601c836106e2565b9150610a4782610a06565b602082019050919050565b60006020820190508181036000830152610a6b81610a2f565b905091905056fea2646970667358221220a5cbbcf9d89b7ae06e655cf1cf778d5668770330a5a9b3c08062cfb4ff6b940264736f6c634300080e0033",
  "immutableReferences": {},
  "source": "pragma solidity >=0.8.1;\n\ncontract Test{\n    struct Unit{\n        uint256 orderID;\n        address seller;\n        address buyer;\n        uint256 value;\n        uint time;\n        bool recieved;\n    }\n\n    mapping(uint256=>Unit) products;\n\n    function addUnit(uint256 _orderID,address _seller) payable public{\n        require(products[_orderID].orderID==0, \"This order is alreday placed\");\n        products[_orderID]=Unit(_orderID,_seller,msg.sender,msg.value,block.timestamp,false);\n    }\n\n    function refund(uint256 _id) public{\n        require(msg.sender==products[_id].buyer, \"This producct is not brought by you\");\n        require(block.timestamp>products[_id].time+10, \"You have to wait before refund\");\n        require(products[_id].recieved==true, \"You have Recieved the Product\");\n        payable(msg.sender).transfer(products[_id].value);\n    }\n\n    function deliveryConfirm(uint _id) public {\n        require(msg.sender==products[_id].buyer, \"Only Buyer can confirm the delivery\");\n        require(products[_id].recieved==false, \"You have already Recieved the Product\");\n        products[_id].recieved=true;\n        payable(products[_id].seller).transfer(products[_id].value);\n    }\n}",
  "sourcePath": "J:\\Programing\\blockchain\\thesis\\frontend\\contracts\\Market.sol",
  "compiler": {
    "name": "solc",
    "version": "0.8.14+commit.80d49f37.Emscripten.clang"
  },
  "schemaVersion": "3.4.7",
  "updatedAt": "2022-06-02T19:51:37.985Z",
  "networkType": "ethereum",
  "devdoc": {
    "kind": "dev",
    "methods": {},
    "version": 1
  },
  "userdoc": {
    "kind": "user",
    "methods": {},
    "version": 1
  }
}