{
  "contractName": "Test",
  "abi": [
    {
      "inputs": [
        {
          "internalType": "uint256",
          "name": "",
          "type": "uint256"
        }
      ],
      "name": "products",
      "outputs": [
        {
          "internalType": "uint256",
          "name": "orderID",
          "type": "uint256"
        },
        {
          "internalType": "address",
          "name": "seller",
          "type": "address"
        },
        {
          "internalType": "address",
          "name": "buyer",
          "type": "address"
        },
        {
          "internalType": "uint256",
          "name": "value",
          "type": "uint256"
        },
        {
          "internalType": "uint256",
          "name": "time",
          "type": "uint256"
        },
        {
          "internalType": "bool",
          "name": "recieved",
          "type": "bool"
        },
        {
          "internalType": "bool",
          "name": "refunded",
          "type": "bool"
        }
      ],
      "stateMutability": "view",
      "type": "function",
      "constant": true
    },
    {
      "inputs": [
        {
          "internalType": "uint256",
          "name": "_orderID",
          "type": "uint256"
        },
        {
          "internalType": "address",
          "name": "_seller",
          "type": "address"
        }
      ],
      "name": "addUnit",
      "outputs": [],
      "stateMutability": "payable",
      "type": "function",
      "payable": true
    },
    {
      "inputs": [
        {
          "internalType": "uint256",
          "name": "_id",
          "type": "uint256"
        }
      ],
      "name": "refund",
      "outputs": [],
      "stateMutability": "nonpayable",
      "type": "function"
    },
    {
      "inputs": [
        {
          "internalType": "uint256",
          "name": "_orderID",
          "type": "uint256"
        }
      ],
      "name": "deliveryConfirm",
      "outputs": [],
      "stateMutability": "nonpayable",
      "type": "function"
    }
  ],
  "bytecode": "0x608060405234801561001057600080fd5b50610dc7806100206000396000f3fe60806040526004361061003f5760003560e01c8063278ecde1146100445780637acc0b201461006d57806383b02bbe146100b0578063ff0188bf146100d9575b600080fd5b34801561005057600080fd5b5061006b60048036038101906100669190610822565b6100f5565b005b34801561007957600080fd5b50610094600480360381019061008f9190610822565b610352565b6040516100a797969594939291906108ba565b60405180910390f35b3480156100bc57600080fd5b506100d760048036038101906100d29190610822565b6103ee565b005b6100f360048036038101906100ee9190610955565b610625565b005b60008082815260200190815260200160002060020160009054906101000a900473ffffffffffffffffffffffffffffffffffffffff1673ffffffffffffffffffffffffffffffffffffffff163373ffffffffffffffffffffffffffffffffffffffff1614610198576040517f08c379a000000000000000000000000000000000000000000000000000000000815260040161018f90610a18565b60405180910390fd5b600a600080838152602001908152602001600020600401546101ba9190610a67565b42116101fb576040517f08c379a00000000000000000000000000000000000000000000000000000000081526004016101f290610b09565b60405180910390fd5b6000151560008083815260200190815260200160002060050160009054906101000a900460ff16151514610264576040517f08c379a000000000000000000000000000000000000000000000000000000000815260040161025b90610b75565b60405180910390fd5b6000151560008083815260200190815260200160002060050160019054906101000a900460ff161515146102cd576040517f08c379a00000000000000000000000000000000000000000000000000000000081526004016102c490610be1565b60405180910390fd5b6001151560008083815260200190815260200160002060050160019054906101000a905050503373ffffffffffffffffffffffffffffffffffffffff166108fc600080848152602001908152602001600020600301549081150290604051600060405180830381858888f1935050505015801561034e573d6000803e3d6000fd5b5050565b60006020528060005260406000206000915090508060000154908060010160009054906101000a900473ffffffffffffffffffffffffffffffffffffffff16908060020160009054906101000a900473ffffffffffffffffffffffffffffffffffffffff16908060030154908060040154908060050160009054906101000a900460ff16908060050160019054906101000a900460ff16905087565b60008082815260200190815260200160002060020160009054906101000a900473ffffffffffffffffffffffffffffffffffffffff1673ffffffffffffffffffffffffffffffffffffffff163373ffffffffffffffffffffffffffffffffffffffff1614610491576040517f08c379a000000000000000000000000000000000000000000000000000000000815260040161048890610c73565b60405180910390fd5b6000151560008083815260200190815260200160002060050160009054906101000a900460ff161515146104fa576040517f08c379a00000000000000000000000000000000000000000000000000000000081526004016104f190610d05565b60405180910390fd5b6000151560008083815260200190815260200160002060050160019054906101000a900460ff16151514610563576040517f08c379a000000000000000000000000000000000000000000000000000000000815260040161055a90610be1565b60405180910390fd5b600160008083815260200190815260200160002060050160006101000a81548160ff02191690831515021790555060008082815260200190815260200160002060010160009054906101000a900473ffffffffffffffffffffffffffffffffffffffff1673ffffffffffffffffffffffffffffffffffffffff166108fc600080848152602001908152602001600020600301549081150290604051600060405180830381858888f19350505050158015610621573d6000803e3d6000fd5b5050565b6000806000848152602001908152602001600020600001541461067d576040517f08c379a000000000000000000000000000000000000000000000000000000000815260040161067490610d71565b60405180910390fd5b6040518060e001604052808381526020018273ffffffffffffffffffffffffffffffffffffffff1681526020013373ffffffffffffffffffffffffffffffffffffffff168152602001348152602001428152602001600015158152602001600015158152506000808481526020019081526020016000206000820151816000015560208201518160010160006101000a81548173ffffffffffffffffffffffffffffffffffffffff021916908373ffffffffffffffffffffffffffffffffffffffff16021790555060408201518160020160006101000a81548173ffffffffffffffffffffffffffffffffffffffff021916908373ffffffffffffffffffffffffffffffffffffffff160217905550606082015181600301556080820151816004015560a08201518160050160006101000a81548160ff02191690831515021790555060c08201518160050160016101000a81548160ff0219169083151502179055509050505050565b600080fd5b6000819050919050565b6107ff816107ec565b811461080a57600080fd5b50565b60008135905061081c816107f6565b92915050565b600060208284031215610838576108376107e7565b5b60006108468482850161080d565b91505092915050565b610858816107ec565b82525050565b600073ffffffffffffffffffffffffffffffffffffffff82169050919050565b60006108898261085e565b9050919050565b6108998161087e565b82525050565b60008115159050919050565b6108b48161089f565b82525050565b600060e0820190506108cf600083018a61084f565b6108dc6020830189610890565b6108e96040830188610890565b6108f6606083018761084f565b610903608083018661084f565b61091060a08301856108ab565b61091d60c08301846108ab565b98975050505050505050565b6109328161087e565b811461093d57600080fd5b50565b60008135905061094f81610929565b92915050565b6000806040838503121561096c5761096b6107e7565b5b600061097a8582860161080d565b925050602061098b85828601610940565b9150509250929050565b600082825260208201905092915050565b7f546869732070726f6475636374206973206e6f742062726f756768742062792060008201527f796f750000000000000000000000000000000000000000000000000000000000602082015250565b6000610a02602383610995565b9150610a0d826109a6565b604082019050919050565b60006020820190508181036000830152610a31816109f5565b9050919050565b7f4e487b7100000000000000000000000000000000000000000000000000000000600052601160045260246000fd5b6000610a72826107ec565b9150610a7d836107ec565b9250827fffffffffffffffffffffffffffffffffffffffffffffffffffffffffffffffff03821115610ab257610ab1610a38565b5b828201905092915050565b7f596f75206861766520746f2077616974206265666f726520726566756e640000600082015250565b6000610af3601e83610995565b9150610afe82610abd565b602082019050919050565b60006020820190508181036000830152610b2281610ae6565b9050919050565b7f596f752068617665205265636965766564207468652050726f64756374000000600082015250565b6000610b5f601d83610995565b9150610b6a82610b29565b602082019050919050565b60006020820190508181036000830152610b8e81610b52565b9050919050565b7f596f75206861766520616c72656164792054616b656e20526566756e64000000600082015250565b6000610bcb601d83610995565b9150610bd682610b95565b602082019050919050565b60006020820190508181036000830152610bfa81610bbe565b9050919050565b7f4f6e6c792042757965722063616e20636f6e6669726d207468652064656c697660008201527f6572790000000000000000000000000000000000000000000000000000000000602082015250565b6000610c5d602383610995565b9150610c6882610c01565b604082019050919050565b60006020820190508181036000830152610c8c81610c50565b9050919050565b7f596f75206861766520616c72656164792052656369657665642074686520507260008201527f6f64756374000000000000000000000000000000000000000000000000000000602082015250565b6000610cef602583610995565b9150610cfa82610c93565b604082019050919050565b60006020820190508181036000830152610d1e81610ce2565b9050919050565b7f54686973206f7264657220697320616c726564617920706c6163656400000000600082015250565b6000610d5b601c83610995565b9150610d6682610d25565b602082019050919050565b60006020820190508181036000830152610d8a81610d4e565b905091905056fea2646970667358221220e69e252f298a769e2bc1ad0c84b040c37604b6525f67bc40b7e13f7cde54693664736f6c63430008090033",
  "immutableReferences": {},
  "source": "pragma solidity >=0.8.1;\n\ncontract Test{\n    struct Unit{\n        uint256 orderID;\n        address seller;\n        address buyer;\n        uint256 value;\n        uint time;\n        bool recieved;\n        bool refunded;\n    }\n\n    mapping(uint256=>Unit) public products;\n\n    function addUnit(uint256 _orderID,address _seller) payable public{\n        require(products[_orderID].orderID==0, \"This order is alreday placed\");\n        products[_orderID]=Unit(_orderID,_seller,msg.sender,msg.value,block.timestamp,false,false);\n    }\n\n    function refund(uint256 _id) public{\n        require(msg.sender==products[_id].buyer, \"This producct is not brought by you\");\n        require(block.timestamp>products[_id].time+10, \"You have to wait before refund\");\n        require(products[_id].recieved==false, \"You have Recieved the Product\");\n        require(products[_id].refunded==false, \"You have already Taken Refund\");\n        products[_id].refunded==true;\n        payable(msg.sender).transfer(products[_id].value);\n    }\n\n    function deliveryConfirm(uint _orderID) public {\n        require(msg.sender==products[_orderID].buyer, \"Only Buyer can confirm the delivery\");\n        require(products[_orderID].recieved==false, \"You have already Recieved the Product\");\n        require(products[_orderID].refunded==false, \"You have already Taken Refund\");\n        products[_orderID].recieved=true;\n        payable(products[_orderID].seller).transfer(products[_orderID].value);\n    }\n}",
  "sourcePath": "/home/foxtrot/blockchain/dapp/mk/contracts/Market.sol",
  "compiler": {
    "name": "solc",
    "version": "0.8.9+commit.e5eed63a.Emscripten.clang"
  },
  "schemaVersion": "3.4.3",
  "updatedAt": "2021-12-25T06:10:56.658Z",
  "networkType": "ethereum",
  "devdoc": {
    "kind": "dev",
    "methods": {},
    "version": 1
  },
  "userdoc": {
    "kind": "user",
    "methods": {},
    "version": 1
  }
}